{
  "_format": "hh3-artifact-1",
  "contractName": "YIDENGToken",
  "sourceName": "contracts/YIDENGToken.sol",
  "abi": [
    {
      "inputs": [
        {
          "internalType": "string",
          "name": "name_",
          "type": "string"
        },
        {
          "internalType": "string",
          "name": "symbol_",
          "type": "string"
        },
        {
          "internalType": "uint256",
          "name": "cap_",
          "type": "uint256"
        }
      ],
      "stateMutability": "nonpayable",
      "type": "constructor"
    },
    {
      "inputs": [],
      "name": "AccessControlBadConfirmation",
      "type": "error"
    },
    {
      "inputs": [
        {
          "internalType": "address",
          "name": "account",
          "type": "address"
        },
        {
          "internalType": "bytes32",
          "name": "neededRole",
          "type": "bytes32"
        }
      ],
      "name": "AccessControlUnauthorizedAccount",
      "type": "error"
    },
    {
      "inputs": [
        {
          "internalType": "address",
          "name": "spender",
          "type": "address"
        },
        {
          "internalType": "uint256",
          "name": "allowance",
          "type": "uint256"
        },
        {
          "internalType": "uint256",
          "name": "needed",
          "type": "uint256"
        }
      ],
      "name": "ERC20InsufficientAllowance",
      "type": "error"
    },
    {
      "inputs": [
        {
          "internalType": "address",
          "name": "sender",
          "type": "address"
        },
        {
          "internalType": "uint256",
          "name": "balance",
          "type": "uint256"
        },
        {
          "internalType": "uint256",
          "name": "needed",
          "type": "uint256"
        }
      ],
      "name": "ERC20InsufficientBalance",
      "type": "error"
    },
    {
      "inputs": [
        {
          "internalType": "address",
          "name": "approver",
          "type": "address"
        }
      ],
      "name": "ERC20InvalidApprover",
      "type": "error"
    },
    {
      "inputs": [
        {
          "internalType": "address",
          "name": "receiver",
          "type": "address"
        }
      ],
      "name": "ERC20InvalidReceiver",
      "type": "error"
    },
    {
      "inputs": [
        {
          "internalType": "address",
          "name": "sender",
          "type": "address"
        }
      ],
      "name": "ERC20InvalidSender",
      "type": "error"
    },
    {
      "inputs": [
        {
          "internalType": "address",
          "name": "spender",
          "type": "address"
        }
      ],
      "name": "ERC20InvalidSpender",
      "type": "error"
    },
    {
      "anonymous": false,
      "inputs": [
        {
          "indexed": true,
          "internalType": "address",
          "name": "owner",
          "type": "address"
        },
        {
          "indexed": true,
          "internalType": "address",
          "name": "spender",
          "type": "address"
        },
        {
          "indexed": false,
          "internalType": "uint256",
          "name": "value",
          "type": "uint256"
        }
      ],
      "name": "Approval",
      "type": "event"
    },
    {
      "anonymous": false,
      "inputs": [
        {
          "indexed": true,
          "internalType": "address",
          "name": "from",
          "type": "address"
        },
        {
          "indexed": false,
          "internalType": "uint256",
          "name": "value",
          "type": "uint256"
        }
      ],
      "name": "Burn",
      "type": "event"
    },
    {
      "anonymous": false,
      "inputs": [
        {
          "indexed": true,
          "internalType": "address",
          "name": "to",
          "type": "address"
        },
        {
          "indexed": false,
          "internalType": "uint256",
          "name": "value",
          "type": "uint256"
        }
      ],
      "name": "Mint",
      "type": "event"
    },
    {
      "anonymous": false,
      "inputs": [
        {
          "indexed": true,
          "internalType": "bytes32",
          "name": "role",
          "type": "bytes32"
        },
        {
          "indexed": true,
          "internalType": "bytes32",
          "name": "previousAdminRole",
          "type": "bytes32"
        },
        {
          "indexed": true,
          "internalType": "bytes32",
          "name": "newAdminRole",
          "type": "bytes32"
        }
      ],
      "name": "RoleAdminChanged",
      "type": "event"
    },
    {
      "anonymous": false,
      "inputs": [
        {
          "indexed": true,
          "internalType": "bytes32",
          "name": "role",
          "type": "bytes32"
        },
        {
          "indexed": true,
          "internalType": "address",
          "name": "account",
          "type": "address"
        },
        {
          "indexed": true,
          "internalType": "address",
          "name": "sender",
          "type": "address"
        }
      ],
      "name": "RoleGranted",
      "type": "event"
    },
    {
      "anonymous": false,
      "inputs": [
        {
          "indexed": true,
          "internalType": "bytes32",
          "name": "role",
          "type": "bytes32"
        },
        {
          "indexed": true,
          "internalType": "address",
          "name": "account",
          "type": "address"
        },
        {
          "indexed": true,
          "internalType": "address",
          "name": "sender",
          "type": "address"
        }
      ],
      "name": "RoleRevoked",
      "type": "event"
    },
    {
      "anonymous": false,
      "inputs": [
        {
          "indexed": true,
          "internalType": "address",
          "name": "from",
          "type": "address"
        },
        {
          "indexed": true,
          "internalType": "address",
          "name": "to",
          "type": "address"
        },
        {
          "indexed": false,
          "internalType": "uint256",
          "name": "value",
          "type": "uint256"
        }
      ],
      "name": "Transfer",
      "type": "event"
    },
    {
      "inputs": [],
      "name": "DEFAULT_ADMIN_ROLE",
      "outputs": [
        {
          "internalType": "bytes32",
          "name": "",
          "type": "bytes32"
        }
      ],
      "stateMutability": "view",
      "type": "function"
    },
    {
      "inputs": [],
      "name": "MINTER_ROLE",
      "outputs": [
        {
          "internalType": "bytes32",
          "name": "",
          "type": "bytes32"
        }
      ],
      "stateMutability": "view",
      "type": "function"
    },
    {
      "inputs": [],
      "name": "REWARD_DISTRIBUTOR_ROLE",
      "outputs": [
        {
          "internalType": "bytes32",
          "name": "",
          "type": "bytes32"
        }
      ],
      "stateMutability": "view",
      "type": "function"
    },
    {
      "inputs": [
        {
          "internalType": "address",
          "name": "owner",
          "type": "address"
        },
        {
          "internalType": "address",
          "name": "spender",
          "type": "address"
        }
      ],
      "name": "allowance",
      "outputs": [
        {
          "internalType": "uint256",
          "name": "",
          "type": "uint256"
        }
      ],
      "stateMutability": "view",
      "type": "function"
    },
    {
      "inputs": [
        {
          "internalType": "address",
          "name": "spender",
          "type": "address"
        },
        {
          "internalType": "uint256",
          "name": "value",
          "type": "uint256"
        }
      ],
      "name": "approve",
      "outputs": [
        {
          "internalType": "bool",
          "name": "",
          "type": "bool"
        }
      ],
      "stateMutability": "nonpayable",
      "type": "function"
    },
    {
      "inputs": [
        {
          "internalType": "address",
          "name": "account",
          "type": "address"
        }
      ],
      "name": "balanceOf",
      "outputs": [
        {
          "internalType": "uint256",
          "name": "",
          "type": "uint256"
        }
      ],
      "stateMutability": "view",
      "type": "function"
    },
    {
      "inputs": [
        {
          "internalType": "uint256",
          "name": "amount",
          "type": "uint256"
        }
      ],
      "name": "burn",
      "outputs": [],
      "stateMutability": "nonpayable",
      "type": "function"
    },
    {
      "inputs": [
        {
          "internalType": "address",
          "name": "account",
          "type": "address"
        },
        {
          "internalType": "uint256",
          "name": "amount",
          "type": "uint256"
        }
      ],
      "name": "burnFrom",
      "outputs": [],
      "stateMutability": "nonpayable",
      "type": "function"
    },
    {
      "inputs": [],
      "name": "cap",
      "outputs": [
        {
          "internalType": "uint256",
          "name": "",
          "type": "uint256"
        }
      ],
      "stateMutability": "view",
      "type": "function"
    },
    {
      "inputs": [],
      "name": "decimals",
      "outputs": [
        {
          "internalType": "uint8",
          "name": "",
          "type": "uint8"
        }
      ],
      "stateMutability": "view",
      "type": "function"
    },
    {
      "inputs": [
        {
          "internalType": "bytes32",
          "name": "role",
          "type": "bytes32"
        }
      ],
      "name": "getRoleAdmin",
      "outputs": [
        {
          "internalType": "bytes32",
          "name": "",
          "type": "bytes32"
        }
      ],
      "stateMutability": "view",
      "type": "function"
    },
    {
      "inputs": [
        {
          "internalType": "bytes32",
          "name": "role",
          "type": "bytes32"
        },
        {
          "internalType": "address",
          "name": "account",
          "type": "address"
        }
      ],
      "name": "grantRole",
      "outputs": [],
      "stateMutability": "nonpayable",
      "type": "function"
    },
    {
      "inputs": [
        {
          "internalType": "bytes32",
          "name": "role",
          "type": "bytes32"
        },
        {
          "internalType": "address",
          "name": "account",
          "type": "address"
        }
      ],
      "name": "hasRole",
      "outputs": [
        {
          "internalType": "bool",
          "name": "",
          "type": "bool"
        }
      ],
      "stateMutability": "view",
      "type": "function"
    },
    {
      "inputs": [
        {
          "internalType": "address",
          "name": "to",
          "type": "address"
        },
        {
          "internalType": "uint256",
          "name": "amount",
          "type": "uint256"
        }
      ],
      "name": "mint",
      "outputs": [],
      "stateMutability": "nonpayable",
      "type": "function"
    },
    {
      "inputs": [],
      "name": "name",
      "outputs": [
        {
          "internalType": "string",
          "name": "",
          "type": "string"
        }
      ],
      "stateMutability": "view",
      "type": "function"
    },
    {
      "inputs": [
        {
          "internalType": "bytes32",
          "name": "role",
          "type": "bytes32"
        },
        {
          "internalType": "address",
          "name": "callerConfirmation",
          "type": "address"
        }
      ],
      "name": "renounceRole",
      "outputs": [],
      "stateMutability": "nonpayable",
      "type": "function"
    },
    {
      "inputs": [
        {
          "internalType": "bytes32",
          "name": "role",
          "type": "bytes32"
        },
        {
          "internalType": "address",
          "name": "account",
          "type": "address"
        }
      ],
      "name": "revokeRole",
      "outputs": [],
      "stateMutability": "nonpayable",
      "type": "function"
    },
    {
      "inputs": [
        {
          "internalType": "bytes4",
          "name": "interfaceId",
          "type": "bytes4"
        }
      ],
      "name": "supportsInterface",
      "outputs": [
        {
          "internalType": "bool",
          "name": "",
          "type": "bool"
        }
      ],
      "stateMutability": "view",
      "type": "function"
    },
    {
      "inputs": [],
      "name": "symbol",
      "outputs": [
        {
          "internalType": "string",
          "name": "",
          "type": "string"
        }
      ],
      "stateMutability": "view",
      "type": "function"
    },
    {
      "inputs": [],
      "name": "totalSupply",
      "outputs": [
        {
          "internalType": "uint256",
          "name": "",
          "type": "uint256"
        }
      ],
      "stateMutability": "view",
      "type": "function"
    },
    {
      "inputs": [
        {
          "internalType": "address",
          "name": "to",
          "type": "address"
        },
        {
          "internalType": "uint256",
          "name": "value",
          "type": "uint256"
        }
      ],
      "name": "transfer",
      "outputs": [
        {
          "internalType": "bool",
          "name": "",
          "type": "bool"
        }
      ],
      "stateMutability": "nonpayable",
      "type": "function"
    },
    {
      "inputs": [
        {
          "internalType": "address",
          "name": "from",
          "type": "address"
        },
        {
          "internalType": "address",
          "name": "to",
          "type": "address"
        },
        {
          "internalType": "uint256",
          "name": "value",
          "type": "uint256"
        }
      ],
      "name": "transferFrom",
      "outputs": [
        {
          "internalType": "bool",
          "name": "",
          "type": "bool"
        }
      ],
      "stateMutability": "nonpayable",
      "type": "function"
    }
  ],
  "bytecode": "0x608060405234801561000f575f5ffd5b506040516121ce3803806121ce833981810160405281019061003191906103ba565b828281600390816100429190610649565b5080600490816100529190610649565b5050508060068190555061006e5f5f1b336100d960201b60201c565b5061009f7f9f2df0fed2c77648de5860a4cc508cd0818c85b8b8a1ab4ceeef8d981c8956a6336100d960201b60201c565b506100d07fb814ff4a26ea3ec5cd1fa579daad86324826254265f3acfec78303a19845b449336100d960201b60201c565b50505050610718565b5f6100ea83836101cf60201b60201c565b6101c557600160055f8581526020019081526020015f205f015f8473ffffffffffffffffffffffffffffffffffffffff1673ffffffffffffffffffffffffffffffffffffffff1681526020019081526020015f205f6101000a81548160ff02191690831515021790555061016261023360201b60201c565b73ffffffffffffffffffffffffffffffffffffffff168273ffffffffffffffffffffffffffffffffffffffff16847f2f8788117e7eff1d82e926ec794901d17c78024a50270940304540a733656f0d60405160405180910390a4600190506101c9565b5f90505b92915050565b5f60055f8481526020019081526020015f205f015f8373ffffffffffffffffffffffffffffffffffffffff1673ffffffffffffffffffffffffffffffffffffffff1681526020019081526020015f205f9054906101000a900460ff16905092915050565b5f33905090565b5f604051905090565b5f5ffd5b5f5ffd5b5f5ffd5b5f5ffd5b5f601f19601f8301169050919050565b7f4e487b71000000000000000000000000000000000000000000000000000000005f52604160045260245ffd5b61029982610253565b810181811067ffffffffffffffff821117156102b8576102b7610263565b5b80604052505050565b5f6102ca61023a565b90506102d68282610290565b919050565b5f67ffffffffffffffff8211156102f5576102f4610263565b5b6102fe82610253565b9050602081019050919050565b8281835e5f83830152505050565b5f61032b610326846102db565b6102c1565b9050828152602081018484840111156103475761034661024f565b5b61035284828561030b565b509392505050565b5f82601f83011261036e5761036d61024b565b5b815161037e848260208601610319565b91505092915050565b5f819050919050565b61039981610387565b81146103a3575f5ffd5b50565b5f815190506103b481610390565b92915050565b5f5f5f606084860312156103d1576103d0610243565b5b5f84015167ffffffffffffffff8111156103ee576103ed610247565b5b6103fa8682870161035a565b935050602084015167ffffffffffffffff81111561041b5761041a610247565b5b6104278682870161035a565b9250506040610438868287016103a6565b9150509250925092565b5f81519050919050565b7f4e487b71000000000000000000000000000000000000000000000000000000005f52602260045260245ffd5b5f600282049050600182168061049057607f821691505b6020821081036104a3576104a261044c565b5b50919050565b5f819050815f5260205f209050919050565b5f6020601f8301049050919050565b5f82821b905092915050565b5f600883026105057fffffffffffffffffffffffffffffffffffffffffffffffffffffffffffffffff826104ca565b61050f86836104ca565b95508019841693508086168417925050509392505050565b5f819050919050565b5f61054a61054561054084610387565b610527565b610387565b9050919050565b5f819050919050565b61056383610530565b61057761056f82610551565b8484546104d6565b825550505050565b5f5f905090565b61058e61057f565b61059981848461055a565b505050565b5b818110156105bc576105b15f82610586565b60018101905061059f565b5050565b601f821115610601576105d2816104a9565b6105db846104bb565b810160208510156105ea578190505b6105fe6105f6856104bb565b83018261059e565b50505b505050565b5f82821c905092915050565b5f6106215f1984600802610606565b1980831691505092915050565b5f6106398383610612565b9150826002028217905092915050565b61065282610442565b67ffffffffffffffff81111561066b5761066a610263565b5b6106758254610479565b6106808282856105c0565b5f60209050601f8311600181146106b1575f841561069f578287015190505b6106a9858261062e565b865550610710565b601f1984166106bf866104a9565b5f5b828110156106e6578489015182556001820191506020850194506020810190506106c1565b8683101561070357848901516106ff601f891682610612565b8355505b6001600288020188555050505b505050505050565b611aa9806107255f395ff3fe608060405234801561000f575f5ffd5b5060043610610140575f3560e01c806340c10f19116100b657806395d89b411161007a57806395d89b4114610386578063a217fddf146103a4578063a9059cbb146103c2578063d5391393146103f2578063d547741f14610410578063dd62ed3e1461042c57610140565b806340c10f19146102d257806342966c68146102ee57806370a082311461030a57806379cc67901461033a57806391d148541461035657610140565b8063248a9ca311610108578063248a9ca3146102105780632f2ff15d14610240578063313ce5671461025c57806332e4bb0a1461027a578063355274ea1461029857806336568abe146102b657610140565b806301ffc9a71461014457806306fdde0314610174578063095ea7b31461019257806318160ddd146101c257806323b872dd146101e0575b5f5ffd5b61015e600480360381019061015991906114a5565b61045c565b60405161016b91906114ea565b60405180910390f35b61017c6104d5565b6040516101899190611573565b60405180910390f35b6101ac60048036038101906101a79190611620565b610565565b6040516101b991906114ea565b60405180910390f35b6101ca610587565b6040516101d7919061166d565b60405180910390f35b6101fa60048036038101906101f59190611686565b610590565b60405161020791906114ea565b60405180910390f35b61022a60048036038101906102259190611709565b6105be565b6040516102379190611743565b60405180910390f35b61025a6004803603810190610255919061175c565b6105db565b005b6102646105fd565b60405161027191906117b5565b60405180910390f35b610282610605565b60405161028f9190611743565b60405180910390f35b6102a0610629565b6040516102ad919061166d565b60405180910390f35b6102d060048036038101906102cb919061175c565b61062f565b005b6102ec60048036038101906102e79190611620565b6106aa565b005b610308600480360381019061030391906117ce565b6107a9565b005b610324600480360381019061031f91906117f9565b61080a565b604051610331919061166d565b60405180910390f35b610354600480360381019061034f9190611620565b61084f565b005b610370600480360381019061036b919061175c565b6108ab565b60405161037d91906114ea565b60405180910390f35b61038e61090f565b60405161039b9190611573565b60405180910390f35b6103ac61099f565b6040516103b99190611743565b60405180910390f35b6103dc60048036038101906103d79190611620565b6109a5565b6040516103e991906114ea565b60405180910390f35b6103fa6109c7565b6040516104079190611743565b60405180910390f35b61042a6004803603810190610425919061175c565b6109eb565b005b61044660048036038101906104419190611824565b610a0d565b604051610453919061166d565b60405180910390f35b5f7f7965db0b000000000000000000000000000000000000000000000000000000007bffffffffffffffffffffffffffffffffffffffffffffffffffffffff1916827bffffffffffffffffffffffffffffffffffffffffffffffffffffffff191614806104ce57506104cd82610a8f565b5b9050919050565b6060600380546104e49061188f565b80601f01602080910402602001604051908101604052809291908181526020018280546105109061188f565b801561055b5780601f106105325761010080835404028352916020019161055b565b820191905f5260205f20905b81548152906001019060200180831161053e57829003601f168201915b5050505050905090565b5f5f61056f610af8565b905061057c818585610aff565b600191505092915050565b5f600254905090565b5f5f61059a610af8565b90506105a7858285610b11565b6105b2858585610ba4565b60019150509392505050565b5f60055f8381526020019081526020015f20600101549050919050565b6105e4826105be565b6105ed81610c94565b6105f78383610ca8565b50505050565b5f6012905090565b7fb814ff4a26ea3ec5cd1fa579daad86324826254265f3acfec78303a19845b44981565b60065481565b610637610af8565b73ffffffffffffffffffffffffffffffffffffffff168173ffffffffffffffffffffffffffffffffffffffff161461069b576040517f6697b23200000000000000000000000000000000000000000000000000000000815260040160405180910390fd5b6106a58282610d92565b505050565b6106d47fb814ff4a26ea3ec5cd1fa579daad86324826254265f3acfec78303a19845b449336108ab565b8061070557506107047f9f2df0fed2c77648de5860a4cc508cd0818c85b8b8a1ab4ceeef8d981c8956a6336108ab565b5b610744576040517f08c379a000000000000000000000000000000000000000000000000000000000815260040161073b90611909565b60405180910390fd5b61074d81610e7c565b6107578282610ee1565b8173ffffffffffffffffffffffffffffffffffffffff167f0f6798a560793a54c3bcfe86a93cde1e73087d944c0ea20544137d41213968858260405161079d919061166d565b60405180910390a25050565b6107b281610f60565b6107ba610af8565b73ffffffffffffffffffffffffffffffffffffffff167fcc16f5dbb4873280815c1ee09dbd06736cffcc184412cf7a71a0fdb75d397ca5826040516107ff919061166d565b60405180910390a250565b5f5f5f8373ffffffffffffffffffffffffffffffffffffffff1673ffffffffffffffffffffffffffffffffffffffff1681526020019081526020015f20549050919050565b6108598282610f74565b8173ffffffffffffffffffffffffffffffffffffffff167fcc16f5dbb4873280815c1ee09dbd06736cffcc184412cf7a71a0fdb75d397ca58260405161089f919061166d565b60405180910390a25050565b5f60055f8481526020019081526020015f205f015f8373ffffffffffffffffffffffffffffffffffffffff1673ffffffffffffffffffffffffffffffffffffffff1681526020019081526020015f205f9054906101000a900460ff16905092915050565b60606004805461091e9061188f565b80601f016020809104026020016040519081016040528092919081815260200182805461094a9061188f565b80156109955780601f1061096c57610100808354040283529160200191610995565b820191905f5260205f20905b81548152906001019060200180831161097857829003601f168201915b5050505050905090565b5f5f1b81565b5f5f6109af610af8565b90506109bc818585610ba4565b600191505092915050565b7f9f2df0fed2c77648de5860a4cc508cd0818c85b8b8a1ab4ceeef8d981c8956a681565b6109f4826105be565b6109fd81610c94565b610a078383610d92565b50505050565b5f60015f8473ffffffffffffffffffffffffffffffffffffffff1673ffffffffffffffffffffffffffffffffffffffff1681526020019081526020015f205f8373ffffffffffffffffffffffffffffffffffffffff1673ffffffffffffffffffffffffffffffffffffffff1681526020019081526020015f2054905092915050565b5f7f01ffc9a7000000000000000000000000000000000000000000000000000000007bffffffffffffffffffffffffffffffffffffffffffffffffffffffff1916827bffffffffffffffffffffffffffffffffffffffffffffffffffffffff1916149050919050565b5f33905090565b610b0c8383836001610f94565b505050565b5f610b1c8484610a0d565b90507fffffffffffffffffffffffffffffffffffffffffffffffffffffffffffffffff811015610b9e5781811015610b8f578281836040517ffb8f41b2000000000000000000000000000000000000000000000000000000008152600401610b8693929190611936565b60405180910390fd5b610b9d84848484035f610f94565b5b50505050565b5f73ffffffffffffffffffffffffffffffffffffffff168373ffffffffffffffffffffffffffffffffffffffff1603610c14575f6040517f96c6fd1e000000000000000000000000000000000000000000000000000000008152600401610c0b919061196b565b60405180910390fd5b5f73ffffffffffffffffffffffffffffffffffffffff168273ffffffffffffffffffffffffffffffffffffffff1603610c84575f6040517fec442f05000000000000000000000000000000000000000000000000000000008152600401610c7b919061196b565b60405180910390fd5b610c8f838383611163565b505050565b610ca581610ca0610af8565b61137c565b50565b5f610cb383836108ab565b610d8857600160055f8581526020019081526020015f205f015f8473ffffffffffffffffffffffffffffffffffffffff1673ffffffffffffffffffffffffffffffffffffffff1681526020019081526020015f205f6101000a81548160ff021916908315150217905550610d25610af8565b73ffffffffffffffffffffffffffffffffffffffff168273ffffffffffffffffffffffffffffffffffffffff16847f2f8788117e7eff1d82e926ec794901d17c78024a50270940304540a733656f0d60405160405180910390a460019050610d8c565b5f90505b92915050565b5f610d9d83836108ab565b15610e72575f60055f8581526020019081526020015f205f015f8473ffffffffffffffffffffffffffffffffffffffff1673ffffffffffffffffffffffffffffffffffffffff1681526020019081526020015f205f6101000a81548160ff021916908315150217905550610e0f610af8565b73ffffffffffffffffffffffffffffffffffffffff168273ffffffffffffffffffffffffffffffffffffffff16847ff6391f5c32d9c69d2a47ea670b442974b53935d1edc7fd64eb21e047a839171b60405160405180910390a460019050610e76565b5f90505b92915050565b5f6006541115610ede5760065481610e92610587565b610e9c91906119b1565b1115610edd576040517f08c379a0000000000000000000000000000000000000000000000000000000008152600401610ed490611a2e565b60405180910390fd5b5b50565b5f73ffffffffffffffffffffffffffffffffffffffff168273ffffffffffffffffffffffffffffffffffffffff1603610f51575f6040517fec442f05000000000000000000000000000000000000000000000000000000008152600401610f48919061196b565b60405180910390fd5b610f5c5f8383611163565b5050565b610f71610f6b610af8565b826113cd565b50565b610f8682610f80610af8565b83610b11565b610f9082826113cd565b5050565b5f73ffffffffffffffffffffffffffffffffffffffff168473ffffffffffffffffffffffffffffffffffffffff1603611004575f6040517fe602df05000000000000000000000000000000000000000000000000000000008152600401610ffb919061196b565b60405180910390fd5b5f73ffffffffffffffffffffffffffffffffffffffff168373ffffffffffffffffffffffffffffffffffffffff1603611074575f6040517f94280d6200000000000000000000000000000000000000000000000000000000815260040161106b919061196b565b60405180910390fd5b8160015f8673ffffffffffffffffffffffffffffffffffffffff1673ffffffffffffffffffffffffffffffffffffffff1681526020019081526020015f205f8573ffffffffffffffffffffffffffffffffffffffff1673ffffffffffffffffffffffffffffffffffffffff1681526020019081526020015f2081905550801561115d578273ffffffffffffffffffffffffffffffffffffffff168473ffffffffffffffffffffffffffffffffffffffff167f8c5be1e5ebec7d5bd14f71427d1e84f3dd0314c0f7b2291e5b200ac8c7c3b92584604051611154919061166d565b60405180910390a35b50505050565b5f73ffffffffffffffffffffffffffffffffffffffff168373ffffffffffffffffffffffffffffffffffffffff16036111b3578060025f8282546111a791906119b1565b92505081905550611281565b5f5f5f8573ffffffffffffffffffffffffffffffffffffffff1673ffffffffffffffffffffffffffffffffffffffff1681526020019081526020015f205490508181101561123c578381836040517fe450d38c00000000000000000000000000000000000000000000000000000000815260040161123393929190611936565b60405180910390fd5b8181035f5f8673ffffffffffffffffffffffffffffffffffffffff1673ffffffffffffffffffffffffffffffffffffffff1681526020019081526020015f2081905550505b5f73ffffffffffffffffffffffffffffffffffffffff168273ffffffffffffffffffffffffffffffffffffffff16036112c8578060025f8282540392505081905550611312565b805f5f8473ffffffffffffffffffffffffffffffffffffffff1673ffffffffffffffffffffffffffffffffffffffff1681526020019081526020015f205f82825401925050819055505b8173ffffffffffffffffffffffffffffffffffffffff168373ffffffffffffffffffffffffffffffffffffffff167fddf252ad1be2c89b69c2b068fc378daa952ba7f163c4a11628f55a4df523b3ef8360405161136f919061166d565b60405180910390a3505050565b61138682826108ab565b6113c95780826040517fe2517d3f0000000000000000000000000000000000000000000000000000000081526004016113c0929190611a4c565b60405180910390fd5b5050565b5f73ffffffffffffffffffffffffffffffffffffffff168273ffffffffffffffffffffffffffffffffffffffff160361143d575f6040517f96c6fd1e000000000000000000000000000000000000000000000000000000008152600401611434919061196b565b60405180910390fd5b611448825f83611163565b5050565b5f5ffd5b5f7fffffffff0000000000000000000000000000000000000000000000000000000082169050919050565b61148481611450565b811461148e575f5ffd5b50565b5f8135905061149f8161147b565b92915050565b5f602082840312156114ba576114b961144c565b5b5f6114c784828501611491565b91505092915050565b5f8115159050919050565b6114e4816114d0565b82525050565b5f6020820190506114fd5f8301846114db565b92915050565b5f81519050919050565b5f82825260208201905092915050565b8281835e5f83830152505050565b5f601f19601f8301169050919050565b5f61154582611503565b61154f818561150d565b935061155f81856020860161151d565b6115688161152b565b840191505092915050565b5f6020820190508181035f83015261158b818461153b565b905092915050565b5f73ffffffffffffffffffffffffffffffffffffffff82169050919050565b5f6115bc82611593565b9050919050565b6115cc816115b2565b81146115d6575f5ffd5b50565b5f813590506115e7816115c3565b92915050565b5f819050919050565b6115ff816115ed565b8114611609575f5ffd5b50565b5f8135905061161a816115f6565b92915050565b5f5f604083850312156116365761163561144c565b5b5f611643858286016115d9565b92505060206116548582860161160c565b9150509250929050565b611667816115ed565b82525050565b5f6020820190506116805f83018461165e565b92915050565b5f5f5f6060848603121561169d5761169c61144c565b5b5f6116aa868287016115d9565b93505060206116bb868287016115d9565b92505060406116cc8682870161160c565b9150509250925092565b5f819050919050565b6116e8816116d6565b81146116f2575f5ffd5b50565b5f81359050611703816116df565b92915050565b5f6020828403121561171e5761171d61144c565b5b5f61172b848285016116f5565b91505092915050565b61173d816116d6565b82525050565b5f6020820190506117565f830184611734565b92915050565b5f5f604083850312156117725761177161144c565b5b5f61177f858286016116f5565b9250506020611790858286016115d9565b9150509250929050565b5f60ff82169050919050565b6117af8161179a565b82525050565b5f6020820190506117c85f8301846117a6565b92915050565b5f602082840312156117e3576117e261144c565b5b5f6117f08482850161160c565b91505092915050565b5f6020828403121561180e5761180d61144c565b5b5f61181b848285016115d9565b91505092915050565b5f5f6040838503121561183a5761183961144c565b5b5f611847858286016115d9565b9250506020611858858286016115d9565b9150509250929050565b7f4e487b71000000000000000000000000000000000000000000000000000000005f52602260045260245ffd5b5f60028204905060018216806118a657607f821691505b6020821081036118b9576118b8611862565b5b50919050565b7f6e6f7420617574686f72697a65640000000000000000000000000000000000005f82015250565b5f6118f3600e8361150d565b91506118fe826118bf565b602082019050919050565b5f6020820190508181035f830152611920816118e7565b9050919050565b611930816115b2565b82525050565b5f6060820190506119495f830186611927565b611956602083018561165e565b611963604083018461165e565b949350505050565b5f60208201905061197e5f830184611927565b92915050565b7f4e487b71000000000000000000000000000000000000000000000000000000005f52601160045260245ffd5b5f6119bb826115ed565b91506119c6836115ed565b92508282019050808211156119de576119dd611984565b5b92915050565b7f63617020657863656564656400000000000000000000000000000000000000005f82015250565b5f611a18600c8361150d565b9150611a23826119e4565b602082019050919050565b5f6020820190508181035f830152611a4581611a0c565b9050919050565b5f604082019050611a5f5f830185611927565b611a6c6020830184611734565b939250505056fea26469706673582212206490823155dfffde0714bfc421d4920dd55c48c6c2803f1784504256e425510564736f6c634300081c0033",
  "linkReferences": {},
  "deployedLinkReferences": {},
  "immutableReferences": {},
  "inputSourceName": "project/contracts/YIDENGToken.sol",
  "buildInfoId": "solc-0_8_28-8b2be29fb68173b7242ad0ed4a5ec41691733f43"
}